S012000052656D6F74655F4361722E7372656331
S315000000005007002051250000C12300004D250000A7
S315000000104D2500004D2500004D2500004D25000012
S315000000200000000000000000000000004D25000058
S315000000304D250000000000004D2500004D25000064
S31500000040C1150000351500004D1600008D16000084
S31500000050651B0000651B0000691D0000651B000094
S31500000060000000000000000000000000000000008A
S31500000070000000000000000000000000000000007A
S31500000080000000000000000000000000000000006A
S31500000090000000000000000000000000000000005A
S315000000A0000000000000000000000000000000004A
S315000000B0000000000000000000000000000000003A
S315000000C0000000000000000000000000000000002A
S315000000D0000000000000000000000000000000001A
S315000000E0000000000000000000000000000000000A
S315000000F000000000000000000000000000000000FA
S3150000010000000000000000000000000000000000E9
S3150000011000000000000000000000000000000000D9
S3150000012000000000000000000000000000000000C9
S3150000013000000000000000000000000000000000B9
S3150000014000000000000000000000000000000000A9
S315000001500000000000000000000000000000000099
S315000001600000000000000000000000000000000089
S315000001700000000000000000000000000000000079
S315000001800000000000000000000000000000000069
S315000001900000000000000000000000000000000059
S315000001A00000000000000000000000000000000049
S315000001B00000000000000000000000000000000039
S315000001C0FFFFFFFFFFFFFFFFFFFFFFFFFFFFFFFF39
S315000001D0FFFFFFFFFFFFFFFFFFFFFFFFFFFFFFFF29
S315000001E0FFFFFFFFFFFFFFFFFFFFFFFFFFFFFFFF19
S315000001F0FFFFFFFFFFFFFFFFFFFFFFFFFFFFFFFF09
S3150000020010B5054C237833B9044B13B1044800E00C
S3150000021000BF0123237010BD9000002000000000E5
S31500000220C03A000008B5034B1BB10349034800E080
S3150000023000BF08BD0000000094000020C03A000086
S3150000024010B5074C002240F20621204601F088FA3C
S315000002502046BDE81040002240F2072101F080BA96
S31500000260D000002010B5054C0549204601F0BCFE23
S315000002702046BDE81040034901F0CABDD800002061
S31500000280743700009837000010B5054C0549204624
S3150000029001F0D2FC2046BDE8104001F099BC00BF39
S315000002A02C010020E837000038B50D4C0D490E4DE5
S315000002B0204601F0F3FB204601F032FC0B4C0C49C2
S315000002C0284601F0EBFB284601F02AFC20460949A6
S315000002D001F0E4FB2046BDE8384001F021BC00BF38
S315000002E0FC000020AC3700000C0100201C0100209F
S315000002F0C0370000D437000008B50649064800F0AC
S315000003007BFF00B908BD4C21044B054A054802F0A5
S315000003101BF800BF383800004C01002034370000BD
S315000003205C37000048370000002310B51B4882B038
S31500000330ADF80430ADF80630044601F053FD012354
S315000003408DF800306946204601F052FD9DF80030D8
S31500000350012BF7D040F6FF740021114A0F4801F037
S315000003604FFD01AA01210D4801F04AFDBDF80430F8
S315000003700C48E31A0DF1060203800221074801F03A
S315000003803FFDBDF80620084BA41A0B21074A034877
S315000003901C8001F035FD02B010BD00BFD800002062
S315000003A0AC000020B0000020AE000020B20000200B
S315000003B02DE9F84FDFF8F4A1DFF8F4B1BAF8003010
S315000003C02DED028BB3F5006F04460D46BBF80030E9
S315000003D050D2B3F5006FC0F0898004231370BAF8C9
S315000003E00000C0F5006002F06BFA0646BBF800009C
S315000003F00F46A0F5006002F063FA02460B4602F0D3
S315000004003DFF3246804689463B463046394602F035
S3150000041035FF0B4602464946404602F005F941ECD7
S31500000420100B02F0ADFB51EC100B02F03BFB034648
S31500000430BBF80000A0F500602B6002F041FA0B4605
S315000004400246BAF80000C0F5006043EC182B02F033
S3150000045037FAB0EE481AF0EE681A41EC100B02F0CB
S315000004608DFB51EC100B02F01DFBBDEC028B2060E6
S31500000470BDE8F88FB3F5006F68D202231370BAF89F
S315000004800000A0F5006002F01BFA8046BBF80000F1
S315000004908946C0F5006002F013FA02460B4602F0E8
S315000004A0EDFE424606460F464B464046494602F09A
S315000004B0E5FE0B4602463946304602F0B5F841ECF9
S315000004C0100B02F05DFB51EC100B02F0EBFA034649
S315000004D0BBF80000C0F500602B6002F0F1F902469F
S315000004E0BAF800000B46A0F50060AEE703231370D0
S315000004F0BAF80000C0F5006002F0E2F90646BBF863
S3150000050000000F46C0F5006002F0DAF902460B461D
S3150000051002F0B4FE3246804689463B4630463946AE
S3150000052002F0ACFE0B4602464946404602F07CF815
S3150000053041EC100B02F024FB51EC100B02F0B2FA66
S315000005400346BBF80000C0F5006075E70123137091
S31500000550BAF80000A0F5006002F0B2F90646BBF852
S3150000056000000F46A0F5006002F0AAF902460B460D
S3150000057002F084FE3246804689463B46304639467E
S3150000058002F07CFE0B4602464946404602F04CF815
S3150000059041EC100B02F0F4FA51EC100B02F082FA67
S315000005A00346BBF80000A0F5006095E7B200002006
S315000005B0AE000020424B1A78022A3BD06FF44B6003
S315000005C01B78012B3F4B1B8803EB000218D0B2F5BA
S315000005D0C87F3FD36FF464629A18B2F5C87F37D3E9
S315000005E0B3F57D6F62D8A3F5E072B2F5C87F61D32B
S315000005F0A3F13002B2F5C87F56D32F2B5ED97047D0
S31500000600B2F5C87F24D36FF464615A18B2F5C87F77
S315000006104CD3B3F57D6F4BD8A3F5E072B2F5C87F26
S3150000062042D3A3F13002B2F5C87F47D32F2BE6D8C9
S31500000630542070476FF41960224B1B881A18B2F5C4
S31500000640C87F07D36FF432615A18B2F5C87F03D258
S3150000065065207047772070476FF44B629A18B2F5A1
S31500000660C87F23D36FF4646C03EB0C02B2F5C87F2A
S315000006701ED3B3F57D6F1FD8A3F59C62B2F5C87F74
S3150000068018D3A3F55472B2F5C87F0DD3A3F5E07263
S31500000690B2F5C87F12D3A3F13002B2F5C87FC7D333
S315000006A02F2BACD8592070474520704772207047D1
S315000006B07420704757207047792070475220704742
S315000006C001000020B000002038B5B54C2DED028B9E
S315000006D02378002B40F0A88003F0FF0CB14B1C7868
S315000006E0002C4FD1B04B1B88B3F5196F50D8B3F51A
S315000006F0CE6F80F09580AD4B1B78012B00F090817A
S31500000700002B40F08D80137891ED008A032B00F0CA
S31500000710C981042B00F0CE80012B00F02982022B28
S3150000072077D1DFEDA37AB4EEE78AF1EE10FA70DD49
S31500000730006802F0D7F892A3D3E9002304460D46D9
S3150000074002F088F9002840F0DD818DA3D3E900236B
S315000007502046294602F092F948B18BA3D3E900233B
S315000007602046294602F076F9002840F0118386A338
S31500000770D3E900232046294602F080F9002848D014
S315000007804A2002E07A2083F800C0BDEC028B38BD17
S31500000790864B1B78012B4DD1137891ED008A012BE6
S315000007A000F00881022B00F04882032B00F07882CB
S315000007B0042B2ED1DFED7E7AB4EEE78AF1EE10FA45
S315000007C027DD006802F08EF86DA3D3E90023044606
S315000007D00D4602F03FF9002840F01A8168A3D3E9DC
S315000007E000232046294602F049F940B166A3D3E921
S315000007F000232046294602F02DF9002858D162A38D
S31500000800D3E900232046294602F038F9002840F0B3
S315000008104E83DFED677AB4EEE78AF1EE10FAB4D8CC
S31500000820BDEC028B712038BD0023BDEC028B5A2033
S31500000830237038BD002BF3D1137891ED008A012B7C
S3150000084000F06281022B67D0032B00F0C481042BD9
S31500000850DFD1DFED577AB4EEE78AF1EE10FAD8DD94
S31500000860006802F03FF846A3D3E9002304460D468C
S3150000087002F0F0F8002840F0798141A3D3E9002383
S315000008802046294602F0FAF848B13FA3D3E90023EF
S315000008902046294602F0DEF8002840F0B9803AA347
S315000008A0D3E900232046294602F0E8F80028B0D014
S315000008B06B206AE7DFED3E7AB4EEE78AF1EE10FAD6
S315000008C0A7DDD0ED007AF5EEC07AF1EE10FA17EE5C
S315000008D0900AC0F2CE8202F005F82DA3D3E90023D8
S315000008E004460D4602F0B6F8002840F0848228A39C
S315000008F0D3E900232046294602F0C0F8002800F07C
S31500000900898025A3D3E900232046294602F0A2F8D0
S3150000091000287FD0412038E7DFED257AB4EEE78A5C
S31500000920F1EE10FA7FF775AFD0ED007AF5EEC07AEA
S31500000930F1EE10FA17EE900AC0F2A58201F0D2FF8E
S3150000094013A3D3E9002304460D4602F083F80028DA
S3150000095040F0A4810EA3D3E900232046294602F0E5
S315000009608DF8002856D00CA3D3E90023204629464B
S3150000097002F070F800284DD0682006E7AFF300803B
S31500000980A4703D0AD7A3E03FA4703D0AD7A3F03F69
S31500000990F6285C8FC2F5D83F48E17A14AE47E93FA6
S315000009A0CC000020CB000020B0000020CA000020B0
S315000009B00000AF445FED027AB4EEE78AF1EE10FA7A
S315000009C07FF727AFD0ED007AF5EEC07AF1EE10FA98
S315000009D017EE900AC0F2528201F084FFCEA3D3E94B
S315000009E0002304460D4602F035F800287FF460AF78
S315000009F0C9A3D3E900232046294602F03FF848B1AF
S31500000A00C7A3D3E900232046294602F023F808B1FC
S31500000A106920BAE6BDEC028BBDE83840FFF7CABDD7
S31500000A20137891ED008A032B00F08081042B00F0EF
S31500000A30B181012B00F0E181022B7FF4EAAEDFEDFC
S31500000A40BA7AB4EEE78AF1EE10FA7FF7E2AE006802
S31500000A5001F048FFACA3D3E9002304460D4601F09C
S31500000A60F9FF002840F09481A7A3D3E9002320468C
S31500000A70294602F003F848B1A5A3D3E9002320468E
S31500000A80294601F0E7FF00287FF47AAEA0A3D3E958
S31500000A9000232046294601F0F1FF00283FF4B9AEB5
S31500000AA0562072E6DFEDA07AB4EEE78AF1EE10FA90
S31500000AB07FF7AFAED0ED007AF5EEC07AF1EE10FA20
S31500000AC017EE900AC0F2CB8101F00CFF92A3D3E996
S31500000AD0002304460D4601F0BDFF002840F0588172
S31500000AE08DA3D3E900232046294601F0C7FF00283D
S31500000AF090D08BA3D3E900232046294601F0AAFF14
S31500000B00002887D0482040E6DFED877AB4EEE78AF2
S31500000B10F1EE10FA7FF77DAED0ED007AF5EEC07AF1
S31500000B20F1EE10FA17EE900AC0F29E8101F0DAFE9D
S31500000B3079A3D3E9002304460D4601F08BFF002874
S31500000B407FF466AF74A3D3E900232046294601F05B
S31500000B5095FF00283FF45EAF71A3D3E9002320463A
S31500000B60294601F077FF00283FF454AF61200CE6D8
S31500000B70DFED6D7AB4EEE78AF1EE10FA7FF749AE53
S31500000B80006801F0AFFE60A3D3E9002304460D46DA
S31500000B9001F060FF00287FF4BDAE5BA3D3E900231C
S31500000BA02046294601F06AFF48B159A3D3E900233C
S31500000BB02046294601F04EFF002840F01C8154A330
S31500000BC0D3E900232046294601F058FF00283FF4C8
S31500000BD020AE4B20D9E5DFED547AB4EEE78AF1EE8C
S31500000BE010FA7FF716AE006801F07CFE46A3D3E943
S31500000BF0002304460D4601F02DFF00287FF4BCAE0D
S31500000C0041A3D3E900232046294601F037FF40B12E
S31500000C103FA3D3E900232046294601F01BFF002805
S31500000C203CD13BA3D3E900232046294601F026FF09
S31500000C3000283FF4EEAD6A20A7E5DFED3B7AB4EE7F
S31500000C40E78AF1EE10FA7FF7E4ADD0ED007AF5EE23
S31500000C50C07AF1EE10FA17EE900AC0F2198101F08F
S31500000C6041FE2DA3D3E9002304460D4601F0F2FE12
S31500000C700028E0D128A3D3E900232046294601F025
S31500000C80FDFE00283FF4C6AE25A3D3E90023204687
S31500000C90294601F0DFFE00283FF4BCAE642074E56F
S31500000CA0DFED217AB4EEE78AF1EE10FA7FF7B1AD07
S31500000CB0006801F017FE14A3D3E9002304460D468D
S31500000CC001F0C8FE0028E9D10FA3D3E9002320468E
S31500000CD0294601F0D3FE40B10DA3D3E900232046F7
S31500000CE0294601F0B7FE0028A5D109A3D3E90023C0
S31500000CF02046294601F0C2FE00283FF48AAD762040
S31500000D0043E500BFAFF30080A4703D0AD7A3E03FE0
S31500000D10A4703D0AD7A3F03FF6285C8FC2F5D83FF2
S31500000D2048E17A14AE47E93F0000AF445FED027A2E
S31500000D30B4EEE78AF1EE10FA7FF76BADD0ED007AEC
S31500000D40F5EEC07AF1EE10FA17EE900AC0F2A58021
S31500000D5001F0C8FD58A3D3E9002304460D4601F06F
S31500000D6079FE00287FF40CAD53A3D3E90023204677
S31500000D70294601F083FE00283FF44CAE50A3D3E988
S31500000D8000232046294601F065FE00283FF442AEC6
S31500000D904420FAE4DFED507AB4EEE78AF1EE10FA79
S31500000DA07FF737ADD0ED007AF5EEC07AF1EE10FAA6
S31500000DB017EE900A76DB01F095FD3FA3D3E90023F9
S31500000DC004460D4601F046FE00287FF402AF3AA322
S31500000DD0D3E900232046294601F050FE00283FF4BF
S31500000DE019AE37A3D3E900232046294601F032FE87
S31500000DF000283FF40FAE4920C7E4DFED377AB4EEA2
S31500000E00E78AF1EE10FA7FF704AD006801F06AFD9B
S31500000E102DA3D3E9002304460D4601F01BFE00284E
S31500000E20E9D129A3D3E900232046294601F026FE6D
S31500000E3048B127A3D3E900232046294601F00AFE3C
S31500000E4000287FF4C6AE22A3D3E900232046294614
S31500000E5001F014FE00283FF4DCAC4C2095E401F0D0
S31500000E6041FD04460D463BE601F03CFD04460D46B9
S31500000E7068E601F037FD04460D4638E501F032FD1F
S31500000E8004460D46B4E501F02DFD04460D4661E528
S31500000E9001F028FD04460D46ECE601F023FD04466C
S31500000EA00D4661E701F01EFD04460D468FE76C20F6
S31500000EB06BE400BFAFF30080F6285C8FC2F5D83F25
S31500000EC048E17A14AE47E93FA4703D0AD7A3E03F54
S31500000ED0A4703D0AD7A3F03F0000AF442DE9804837
S31500000EE083B0FFF7ADF94FF0710BFFF705FAFFF787
S31500000EF0B9F9FFF7D9F9FFF7C7F92E4F2E4E2F4D47
S31500000F002F4CDFF8CC80DFF8CCA0DFF8CC903B7814
S31500000F10CBB9FFF709FA2B4A2B492C48FFF748FAB9
S31500000F20284A29492948FFF7CFFB2A7803469042E9
S31500000F3030702CD14FF47A710A202A7001F00CFA25
S31500000F403B78002BE5D098F80030ABB933782A7897
S31500000F509A4201D12B70DAE7012248460DF10701CA
S31500000F608DF8073000F002F92378022BFCD100221D
S31500000F70337822702B70CAE7002388F800309AF87D
S31500000F800030632B12D0712386F800B0DFE7012210
S31500000F9048460DF107018DF8073000F0E7F8237891
S31500000FA0022BFCD1002332782370C3E75822134664
S31500000FB03270CCE7C2000020B4000020B50000204B
S31500000FC0CD000020C0000020B8000020BC0000209A
S31500000FD0C1000020000000204C010020022800D0A3
S31500000FE07047024B0248596800F0F4BC68370000AD
S31500000FF0D0000020014B02791A707047CD00002006
S31500001000064B1B781BB90122054B1A70704701204D
S3150000101043220449044B08701A707047C20000202E
S31500001020CB000020C100002000000020064B1B78EA
S315000010301BB90122054B1A7070470120632204492F
S31500001040044B08701A707047C2000020CC000020C4
S31500001050C1000020000000200C4A13780133DBB2E7
S3150000106013701378012B02D1D9B2094B197013787A
S31500001070022BD9B200D07047002310B40448054CA7
S315000010802170037013705DF8044B7047C300002095
S31500001090C200002001000020027902B1704708B5A5
S315000010A0264B27481968013119601968814288BFA3
S315000010B01A60244A1278022A0BD0234A12783AB1CF
S315000010C01B682249224A01FB03F3B2EB730F20D2BD
S315000010D008BD1A681D481E4900FB02F2B1EB720FEB
S315000010E0194AEBD311780029E8D11A4A40F20B11BC
S315000010F013781948C3F10103DBB21370127800F0BC
S315000011002FFBBDE8084001224FF48671124800F01B
S3150000111027BB124A4FF4867113780F48C3F10103B7
S31500001120DBB21370127800F01BFBBDE80840012209
S3150000113040F20B11084800F013BB00BFC4000020AA
S315000011409F86010001000020C2000020D578E92614
S31500001150DD240601C8000020D0000020C9000020C0
S3150000116008B5FFF7BBFE002008BD00BF10B4046A37
S31500001170A37803F07B03A370837803F00303D21AEA
S315000011800B440261A278C360837842F0800203F0C8
S315000011900303022BA27005D00B780020E3705DF8E4
S315000011A0044B70470B88002043F47E43E3815DF8CF
S315000011B0044B7047F0B5846A85B005460F469446E1
S315000011C06E46B4B194E80F0086E80F00EB6920463E
S315000011D01B7884F804C02360EB6AC4E902736B6A67
S315000011E09847AC6A1CB196E80F0084E80F0005B07A
S315000011F0F0BD3446EAE700BF2DE9F0470024034678
S3150000120001250A78047002F5800202F58C5212025A
S3150000121002624A69C16142629A78886965F301028D
S315000012209C62D8629A704A7822B902209A7860F352
S3150000123001029A70012491F90B50B94A680905F028
S315000012401F07203004FA07F78E7A42F82070BFF3A2
S315000012504F8FBFF36F8FB34805F1C00750F827C013
S3150000126036016FF3104C40F827C0AF4F02EB050C68
S31500001270F6B28CF8006347F8253091F905500E79DF
S315000012804FEA551C05F01F0E0CF1200C04FA0EFE59
S3150000129042F82CE0BFF34F8FBFF36F8F05F1C00C00
S315000012A050F82CE036016FF3104E40F82CE0F6B201
S315000012B002EB050C8CF8006347F8253091F90750CE
S315000012C08E794FEA551C05F01F0E0CF1200C04FA1E
S315000012D00EFE42F82CE0BFF34F8FBFF36F8F05F180
S315000012E0C00C50F82CE036016FF3104E40F82CE09D
S315000012F0F6B202EB050C8CF8006347F8253091F93D
S3150000130009600D7A4FEA561C06F01F0E0CF1200CF0
S3150000131004FA0EFE42F82CE0BFF34F8FBFF36F8F37
S3150000132006F1C00C50F82CE02D01EDB232446FF3FB
S31500001330104E40F82CE082F8005347F82630EFF3C1
S31500001340108584F310884FF00044784A0E78506870
S31500001350F44020EA04005060526885F310880020AB
S3150000136040F219241A6A0625907010715072907214
S31500001370D0725083087824FA00F0C00744BF40209A
S31500001380D07440F21920CC6915770D788E78E84034
S31500001390C70748BF4FF478404D78C97848BF908258
S315000013A0C900032D41EA061100F0B580002D14BFD7
S315000013B0F220E220C9B211709071217B08290EBF7C
S315000013C00A21490001F0020151736178A078C90130
S315000013D0400100F02000C9B20143002010722678B7
S315000013E0B01E012840F28E80C9B2D171616888783A
S315000013F04D785070107865F301001070C878097840
S315000014009074D07901F05C0100F0A3000143D17122
S3150000141000204FF00108C3E90300C3E90500D3F833
S315000014201C90404999F905C0414F0CF1C00E4FEA96
S315000014305C1551F82EA0AD000CF01F0C05F16045AF
S3150000144008FA0CFC05F5614560F3104A41F82EA038
S31500001450C5F880C1C5F800C099F90BC006F00306AF
S315000014600CF1C00E4FEA5C1551F82EA0AD000CF041
S315000014701F0C05F1604508FA0CFC05F5614560F3A3
S31500001480104A41F82EA0C5F880C1C5F800C099F9E8
S3150000149007E046F070060EF1C00A4FEA5E1C0EF039
S315000014A01F0E08FA0EF54FEA8C0C51F82AE00CF1E3
S315000014B0604C0CF5614C60F3104E41F82AE0CCF814
S315000014C08051CCF8005099F9095005F1C00C51F83B
S315000014D02CE060F3104E41F82CE069098900B4F85D
S315000014E00AC001F1604105F01F0408FA04F401F591
S315000014F06141C1F880410C609670A3F808C05F6036
S31500001500BDE8F087FF20022E08BF41F01001C9B2E6
S315000015105070D1717CE7F22041F040014AE700BFEC
S3150000152000E100E000600040C001002000400840EB
S315000015305549435330B4EFF30383103B5BB21E4A65
S3150000154003F1C00152F821001C4C6FF3104042F821
S31500001550210054F82300C3691B691BB103691BB141
S3150000156030BC704703697BB9D0E908240021937821
S3150000157003F07F0343F004039370C160002CEFD0A7
S3150000158030BC8022FFF716BE827802F003010229E2
S31500001590C1680BD0046A91F800C084F803C002F059
S315000015A003029B1A0A44C0E90323D8E70C88056A9C
S315000015B044F47E44EC81F2E700600040C001002064
S315000015C010B582B0EFF30383103B1E4A5BB203F102
S315000015D0C00152F821001C4C6FF3104042F8210064
S315000015E054F82340A27802F00303022B236A0CBFAF
S315000015F0198A5979A3690CBFC1F30801C9B20191CF
S3150000160043B9636AB3B10422204602B0BDE8104074
S31500001610FFF7D0BD02F0030201A9606901F098FA54
S31500001620D4E90521A37803F003031A44C91AC4E9CF
S31500001630052109B102B010BD636A002BFAD0012260
S31500001640E2E700BF00600040C001002010B5EFF3E4
S3150000165003840C4B103C64B253F82400D0E90821F3
S31500001660937803F07B03937019B102220021FFF7F0
S31500001670A1FD054BC03453F824206FF3104243F804
S31500001680242010BDC00100200060004010B5EFF31B
S315000016900384194B103C64B253F82400837803F09A
S315000016A00303022B036A0CBF198A597993F804C005
S315000016B00CBFC1F30801C9B21CF0100F0CF03802C0
S315000016C006D093F81CC01CF0010F08BF42F0400280
S315000016D093F804C00CF0C70C83F804C0436A0BB13E
S315000016E0FFF768FD054BC03453F824206FF3104212
S315000016F043F8242010BD00BFC00100200060004058
S315000017000022034610461A60704700BF0B0A10B449
S315000017101B01064C53FA81F154F821300020C3F323
S3150000172040035DF8044B1370704700BF0008084083
S31500001730090A490101F1804101F500214B680020A9
S3150000174013807047090A490123EA020C01F180411E
S315000017501A4001F5002142EA0C4200208A607047D7
S315000017600123C8B283404AB91A040B0A5B0103F18C
S31500001770804303F5002300209A6070479AB2F4E78D
S31500001780090A490101F1804101F5002110B40C68F4
S3150000179002EA030C4CEA040C62EA030202EA0C02B7
S315000017A000205DF8044B0A60704700BF090A490132
S315000017B001F1804101F500214B680020C3F30F437E
S315000017C013807047012310B44FEA112C4FEA4C1CCA
S315000017D00CF1804C0CF5002CDCF80440C9B203FA7D
S315000017E001F18BB201EA1441C91AB1FA81F1490932
S315000017F000205DF8044B1170704700BF090A4901CB
S3150000180023EA020C01F180411A4001F5002142EA67
S315000018100C420020CA60704706207047012A14D087
S315000018204FF480300B0A5B0103F1804303F500237C
S3150000183010B4CAB2DC6800FA02F22243120C120497
S3150000184000205DF8044BDA6070470B0A5B0103F178
S31500001850804303F50023D868C9B28A40024392B296
S315000018600020DA60704700BF38B50488002C4CD0E1
S315000018700021436840F20245043303EBC40040F202
S31500001880034C40F2044E0C460FE062452FD153F84C
S31500001890042C02F0B852B2F1807F14BF41F002016D
S315000018A044F002040833834210D01A88AA42ECD1CD
S315000018B053F8042C083302F0B852B2F1807F14BFFB
S315000018C041F0010144F001048342EED1C943CDB297
S315000018D0012000F011FE0E4B012093F8BB241443A7
S315000018E02C4083F8BB44BDE8384000F0D5BD7245B6
S315000018F0D8D153F8042C02F0B852B2F1807F0CBF55
S3150000190044F0040441F00401CCE7FF25E0E700BF02
S3150000191000E00140F8B50446FFF7A6FFEFF310829A
S31500001920012383F31088284E33681BB92749CB70EF
S315000019304023CB7033680133336082F310882388E9
S315000019407BB3626803F1FF3E1FFA8EFE02F10801C7
S315000019501F4C01EBCE0E08E0D2B21B0113448E459C
S315000019600A4644F823001CD008311068928810F407
S31500001970803F4FEA1223EFD0130AD2B202EB031CC8
S3150000198054F82C701B01134420F480356FF3104774
S315000019908E4544F82C700A4644F82C5044F823002F
S315000019A0E2D1EFF31082012383F31088336813B179
S315000019B03368013B336033681BB980200349CB7021
S315000019C0C87082F31088F8BDBC010020000D0840E5
S315000019D00008084008B5034B03600846FFF79AFF66
S315000019E0002008BD54524F5008B50846FFF792FF35
S315000019F0002008BD70B5012684B002AB68460C46CF
S31500001A0015460193ADF80060ADF80C100292FFF791
S31500001A102BFFEFF3108286F310881D490B681BB964
S31500001A2040261C48C370C6700B6801330B6082F3F6
S31500001A301088EA034FEA1423E4B219D41B01164AAC
S31500001A40234442F82350EFF31082012383F31088D6
S31500001A500B6813B10B68013B0B600B681BB9802048
S31500001A600C49CB70C87082F31088002004B070BD9A
S31500001A70094A04EB031052F820601B016FF310466D
S31500001A8042F8206025F4803642F82060D7E700BF90
S31500001A90BC010020000D084000080840F0B50346D0
S31500001AA0002591F902C01B4C4FEA8C0202F18042DC
S31500001AB080F804C002F5C042D1E90270D2F8006392
S31500001AC0C2F80053C3E9027091F800E0BCF1000FC0
S31500001AD083F805E004F80E500D79C87840EA051041
S31500001AE04D7940EAC510C0B204F80E00C2F8006392
S31500001AF00BDB4A78084812010CF16041D2B201F5BD
S31500001B00614181F8002340F82C30044A00201A6015
S31500001B10F0BD00BF00600040C001002055434900F1
S31500001B200346012110B493F904200D4C02F1C00CB8
S31500001B30530902F01F0201FA02F254F82C109B001E
S31500001B4003F160436FF3104144F82C1003F5614331
S31500001B500020C3F880215DF8044B1A60704700BF6F
S31500001B600060004010B582B0EFF30384164B103CC2
S31500001B7064B253F82420154950790B5C03F0030333
S31500001B80032B0FD0C03451F824306FF3104341F8C3
S31500001B902430936823B1D268CDE90020684698477F
S31500001BA002B010BD936823B1D268CDE90020684623
S31500001BB09847064BC03453F824206FF3104243F87D
S31500001BC0242002B010BD00BFC0010020006000400C
S31500001BD003460020D3E9022353607047002800DA49
S31500001BE070474FF0010C10B400F160430901104C2E
S31500001BF0C9B203F5614383F800130E4B44F8202065
S31500001C0000F1C00253F822106FF3104143F822107E
S31500001C1043099B0000F01F0003F1604303F5614395
S31500001C200CFA00F0C3F880015DF8044B18607047A9
S31500001C30C001002000600040F8B501250446087C7C
S31500001C400A4605FA00F3E3601B0718BF002361602C
S31500001C504FF0000118BF2374314B08BF25740344AD
S31500001C6050691B02A3606061D2E90635C4E9061318
S31500001C70EFF3108C012383F310884FF00046294BB5
S31500001C80177C186926FA07F720EA070018611B690E
S31500001C908CF310884FF42540A3681860D962D96385
S31500001CA09964177A5068FF05DF621E615E619E6166
S31500001CB0AE6959629962DE61EE6901381E62986604
S31500001CC05866E86A9963C3F8881030B995F8210018
S31500001CD095F82010400740EA41304FF4AA01032648
S31500001CE019640121E768DF6058631E631963517C3C
S31500001CF092F912002246FFF771FF224695F822104C
S31500001D0095F92400FFF76AFF95F92500224695F814
S31500001D102310FFF763FF044B00202360F8BD00BFCC
S31500001D2090164000004008405450470070B5836943
S31500001D3084B004468C46164601AD9BB193E8070075
S31500001D4085E8070083F804C0E26918469E601A60B9
S31500001D5063699847A3691BB195E8070083E8070004
S31500001D6004B070BD2B46EDE770B5EFF30383103B6F
S31500001D70194A5BB203F1C00152F82100174C6FF308
S31500001D80104042F8210054F82300446894F800C03B
S31500001D90BCF1010F17D1D0E902560024AE60AC6445
S31500001DA0EC642C6552F821504FEA531E0C4E03F09A
S31500001DB01F030CFA03F364F310450EF1600C42F8AE
S31500001DC0215046F82C3043692BB1BDE87040002203
S31500001DD01146FFF7ABBF70BD00600040C001002098
S31500001DE000E100E003461A689B8A002013807047D2
S31500001DF003461B6800201B88C3F3C0330B70704773
S31500001E0003461B68103133F81130002013807047E9
S31500001E1043682DE9F0430C684A685E6903688D687B
S31500001E201FFA84F8A3F804801FFA82F8A3F8148036
S31500001E3022F0405C1FFA85F824F0405E25F04057FA
S31500001E402243A3F808804FEA1C4C3F0C4FEA1E4879
S31500001E5012F0405FA3F80680A3F816C05F8153D145
S31500001E60CF68002F00F0AF80B7F808C01CF4006FF1
S31500001E7020D0D7E90052B7F80A80A3F890C0A3F89B
S31500001E809C80B7F80C80A3F89E801FFA85F8A3F80B
S31500001E909480C5F30B482D0FA3F8968083F89250D3
S31500001EA095B2A3F89850C2F30B45120FA3F89A50B7
S31500001EB083F893201CF4007F1AD10A8AA3F890C0F5
S31500001EC0A3F88020F2786AB1BEFA8EFE1A88818A5B
S31500001ED092B222F01F021F32A2EB0E0292B21143FF
S31500001EE01A808182394BC0E903340020BDE8F083B3
S31500001EF0BA7CFD7C2A4383F8A620FA89A3F8A82099
S31500001F003A8AA3F8AA20D8E741F23608304FD7F824
S31500001F102090304FC9F3026C3F68C9F3021907FAE3
S31500001F200CFC2D4F2CFA09FCA7FB0C7C4FEA9C1CE1
S31500001F3008FB0CFC294FA7FB0C7C4FEA9C4C0CF1D0
S31500001F40010CBCF1070F38BF4FF0070C12F0805799
S31500001F5022D0EFF31085012383F31088204BDC6831
S31500001F6024F48004DC60DB6885F3108890251D4B23
S31500001F700C681D7003685FFA8CF714F0805F8D683B
S31500001F8083F8DE7014BF4FF480774FF4806715F046
S31500001F90805F18BF47F0010792000ED5A20048BF28
S31500001FA047F400775FFA8CFC58BF47F40067AA0035
S31500001FB083F8DFC048BF47F00207BFB25F82CF6831
S31500001FC0002F7FF451AFBC4677E700BF4344415230
S31500001FD000E0014048030020D34D621083DE1B431E
S31500001FE00040084000300F402DE9F0430025CA6844
S31500001FF00B884C6982610A695B02C0E9075203F1EA
S31500002000804303F5B813036041604A798E78E5781A
S31500002010130243EA4633002D00F0DD8043F43073AB
S31500002020022A14BF4FF0000C714A9BB208BF32F867
S3150000203025C083820A79CD78D20342EA45026578C3
S31500002040267842EA4515EFF310884FF0010E8EF31D
S315000020501088684F0A88D7F80C90C2F110020EFA61
S3150000206002F229EA0202FA60FA6888F3108847F653
S31500002070FF5213400268ADB21380A2F810C0D5819A
S3150000208016736379A3EB0E03B3FA83F35B0982F845
S31500002090D03091F90630002B21DB0A7A03F1604536
S315000020A01201554ED2B205F5614585F80023534D10
S315000020B046F823005A0903F1C00655F82670920027
S315000020C003F01F0302F160420EFA03F302F56142C8
S315000020D06FF3104745F82670C2F88031136091F906
S315000020E00730002B22DB4A7A03F160411201D2B29B
S315000020F001F5614181F8002301213F4A3F4D42F835
S31500002100230003F1C0065A0955F82670920003F021
S315000021101F0302F1604202F5614201FA03F36FF315
S31500002120104745F82670C2F88031136094F90630DE
S31500002130002B22DB227A03F160411201D2B201F5B3
S31500002140614181F8002301212B4A2C4D42F82300DE
S3150000215003F1C0065A0955F82670920003F01F03D2
S3150000216002F1604202F5614201FA03F36FF3104790
S3150000217045F82670C2F88031136094F90730002BB9
S3150000218022DB627A03F1604112011B4CD2B201F5E7
S31500002190614181F80023194A44F8230003F1C00184
S315000021A052F821406FF3104442F8214001215A09A8
S315000021B0920003F01F0302F1604202F5614201FA48
S315000021C003F3C2F88031136000230D4A0361826075
S315000021D01846BDE8F0833AB943F4004343F04003A0
S315000021E09BB29446838225E743F0400318E700BF7D
S315000021F0DC39000000400840C001002000600040BB
S3150000220043444152064B074993F826001A6A51F88F
S315000022102030C2F302620449D3400B60704700BF0E
S3150000222000E001407400002048030020F8B54AF29F
S31500002230035001233849394AA1F8FE03A2F80431B4
S31500002240B2F804319BB2002BFAD101214FF40045BC
S315000022504FF0090C324CDFF8E4E0324EC4F804E0EB
S31500002260DFF8DCE02C48C4F80CE02F4FA2F8001190
S315000022702E4AB16031606261276090F82620A56021
S315000022802561056A54F82220C5F30265EA40284D07
S315000022902A6080F8133480F8A2C090F88034A3B383
S315000022A000231D4981F8813481F8803481F8363065
S315000022B091F83C30DA07FBD543F612300023164A74
S315000022C0088581F82A3092F83C309B06FBD5012020
S315000022D00521124BF12683F81C01164B82F82610B5
S315000022E0136292F82630106A54F82310C0F3026085
S315000022F0C14000242960F0204FF425410E4B1E7387
S315000023001C721873A2F8FE13F8BD80F8801440F210
S31500002310C44000F021F8C3E700E0014000C00140DE
S315000023207400002000700040002D310100C2EB0B4C
S3150000233048030020211202210020004000127A00EA
S3150000234000366E01704700BF00BEFEE7A0F1010037
S315000023500028FBD1704700BF10B54FF47A72164CB7
S31500002360164B24684FF0000EB3FBF4FC4FF0FF331E
S3150000237000FB01F1A1FB020483427EEB040407D3B8
S31500002380B0FBFCF0800880B1BDE81040FFF7DEBF6F
S315000023904FEA8C0CB1FBFCF1A1FB02128B427EEBE7
S315000023A0020203D308460028EED110BD1846BDE848
S315000023B01040FFF7CBBF00BF4803002000CA9A3B7E
S315000023C070B500240A4B0B4EB3F84051ADB225FA56
S315000023D004F3DB07E0B203D556F8243003B198477F
S315000023E00134102CF3D1024BA3F8305170BD00BF5D
S315000023F0006000407C01002030B56FF0FF0585B01D
S31500002400032000F079F84FF0FF311F4C1F48224699
S31500002410856400230125CDE90111039104F1C00E65
S3150000242032F8020F590960B104A800EB810151F896
S315000024300C0C03F01F0C05FA0CFC20EA0C0041F80A
S315000024400C0C724503F10103EAD10199104B0F4AB6
S3150000245003201167C3F8801202995167C3F88412EA
S3150000246003999167C3F8881200F016F8002309480B
S3150000247003F1C00234F8021F0133602B40F822102A
S31500002480F6D105B030BD00BFE23800000080004044
S3150000249000E100E000600040EFF31081012383F3C8
S315000024A01088124B33F8102092B22AB133F810205C
S315000024B0013A92B223F8102033F810309BB293B948
S315000024C00B4A10B4B2F8FE330A4C9BB234F8100033
S315000024D043F4254323EA0003A2F8FE3381F3108870
S315000024E05DF8044B704781F3108870474003002065
S315000024F000E00140E839000030B4EFF31081012319
S3150000250083F310880E4A32F810309BB26BB90D4C2B
S315000025100D4DB4F8FE3335F810C09BB243EA0C03F8
S3150000252043F425439BB2A4F8FE3332F8103001334E
S315000025309BB222F8103081F3108830BC704700BF80
S315000025404003002000E00140E839000000BE70476B
S3150000255008B500F003F8FEF703FEFEE74FF470013E
S31500002560234B244A70B50020C3F888109A60FEF702
S3150000257035FDFFF75BFE0120FEF730FD1E4B83F3B2
S315000025800A881E481E4A0021121A00F0EEFA1D485B
S315000025901D4A1E49121A00F0DBFA1D4D1D4B5B1B2E
S315000025A0002B07DD00249E1055F8043B01349847A4
S315000025B0A642F9DCFFF726FE0320FFF79DFF002366
S315000025C04FF6FF70144903F108020133092B21F875
S315000025D01200F8D10320FFF75FFF0220FEF7FEFC92
S315000025E0FFF70AFFBDE870400020FFF7ABBE00BF53
S315000025F000ED00E0000000005003002090000020E5
S315000026004C0300200000002074000020C43A0000A3
S315000026106C00002070000020000D084081F0004191
S3150000262002E000BF83F0004330B54FEA41044FEAB1
S31500002630430594EA050F08BF90EA020F1FBF54EA4C
S31500002640000C55EA020C7FEA645C7FEA655C00F0E8
S31500002650E2804FEA5454D4EB5555B8BF6D420CDDB9
S315000026602C4480EA020281EA030382EA000083EA3C
S31500002670010180EA020281EA0303362D88BF30BDDC
S3150000268011F0004F4FEA01314FF4801C4CEA113132
S3150000269002D0404261EB410113F0004F4FEA033391
S315000026A04CEA133302D0524263EB430394EA050F1C
S315000026B000F0A780A4F10104D5F1200E0DDB02FA8B
S315000026C00EFC22FA05F2801841F1000103FA0EF21F
S315000026D0801843FA05F359410EE0A5F120050EF1E5
S315000026E0200E012A03FA0EFC28BF4CF0020C43FA16
S315000026F005F3C01851EBE37101F0004507D54FF023
S31500002700000EDCF1000C7EEB00006EEB0101B1F572
S31500002710801F1BD3B1F5001F0CD349085FEA3000B8
S315000027204FEA3C0C04F101044FEA445212F5800FC3
S3150000273080F09A80BCF1004F08BF5FEA500C50F160
S31500002740000041EB045141EA050130BD5FEA4C0C43
S31500002750404141EB0101013C28BFB1F5801FE9D2A0
S3150000276091F0000F04BF01460020B1FA81F308BFC3
S315000027702033A3F10B03B3F120020CDA0C3208DD8F
S3150000278002F1140CC2F10C0201FA0CF021FA02F16A
S315000027900CE002F11402D8BFC2F1200C01FA02F1DA
S315000027A020FA0CFCDCBF41EA0C019040E41AA2BFFF
S315000027B001EB0451294330BD6FEA04041F3C1CDAC7
S315000027C00C340EDC04F11404C4F1200220FA04F0E7
S315000027D001FA02F340EA030021FA04F345EA030191
S315000027E030BDC4F10C04C4F1200220FA02F001FA53
S315000027F004F340EA0300294630BD21FA04F02946D5
S3150000280030BD94F0000F83F4801306BF81F480116D
S315000028100134013D4EE77FEA645C18BF7FEA655CE0
S3150000282029D094EA050F08BF90EA020F05D054EAB2
S31500002830000C04BF1946104630BD91EA030F1EBFB7
S315000028400021002030BD5FEA545C05D140004941BB
S3150000285028BF41F0004130BD14F580043CBF01F5AE
S31500002860801130BD01F0004545F0FE4141F4700194
S315000028704FF0000030BD7FEA645C1ABF194610466F
S315000028807FEA655C1CBF0B46024650EA013406BF70
S3150000289052EA033591EA030F41F4002130BD00BF2F
S315000028A090F0000F04BF0021704730B54FF48064EC
S315000028B004F132044FF000054FF0000150E700BF6D
S315000028C090F0000F04BF0021704730B54FF48064CC
S315000028D004F1320410F0004548BF40424FF00001B9
S315000028E03EE700BF42004FEAE2014FEA31014FEAFC
S315000028F002701FBF12F07F4393F07F4F81F060514B
S31500002900704732F07F4208BF704793F07F4F04BF95
S3150000291041F40021704730B54FF4607401F0004572
S3150000292021F000411CE700BF50EA010208BF7047D2
S3150000293030B54FF000050AE050EA010208BF7047C3
S3150000294030B511F0004502D5404261EB41014FF42C
S31500002950806404F132045FEA915C3FF4D8AE4FF034
S3150000296003025FEADC0C18BF03325FEADC0C18BF17
S31500002970033202EBDC02C2F1200300FA03FC20FA68
S3150000298002F001FA03FE40EA0E0021FA02F11444B5
S31500002990BDE600BF4FF0FF3C06E000BF4FF0010C64
S315000029A002E000BF4FF0010C4DF804CD4FEA410C98
S315000029B07FEA6C5C4FEA430C18BF7FEA6C5C1BD065
S315000029C001B050EA410C0CBF52EA430C91EA030FE6
S315000029D002BF90EA020F0020704710F1000F91EA43
S315000029E0030F58BF994208BF90422CBFD8176FEA11
S315000029F0E37040F0010070474FEA410C7FEA6C5CDF
S31500002A0002D150EA013C07D14FEA430C7FEA6C5CE5
S31500002A10D6D152EA033CD3D05DF8040B704700BF11
S31500002A208446104662468C461946634600E000BF5F
S31500002A3001B5FFF7B7FF002848BF10F1000F01BD31
S31500002A404DF808EDFFF7F4FF0CBF012000205DF8FC
S31500002A5008FB00BF4DF808EDFFF7EAFF34BF012081
S31500002A6000205DF808FB00BF4DF808EDFFF7E0FF1A
S31500002A7094BF012000205DF808FB00BF4DF808ED6B
S31500002A80FFF7CEFF94BF012000205DF808FB00BFD2
S31500002A904DF808EDFFF7C4FF34BF012000205DF8B4
S31500002AA008FB00BF4FEA4102B2F1E04324BFB3F591
S31500002AB0001CDCF1FE5C0DD901F0004C4FEAC002AF
S31500002AC04CEA5070B2F1004F40EB830008BF20F093
S31500002AD00100704711F0804F21D113F13872BCBF4D
S31500002AE001F00040704741F480114FEA5252C2F1A2
S31500002AF01802C2F1200C10FA0CF320FA02F018BFEB
S31500002B0040F001004FEAC1234FEAD32303FA0CFC3D
S31500002B1040EA0C0023FA02F34FEA4303CCE77FEACC
S31500002B20625307D150EA01331EBF4FF0FE4040F416
S31500002B304000704701F0004040F0FE4040F40000C5
S31500002B40704700BF014B1868704700BF080000209F
S31500002B500A44431E914200D1704710B511F8014B4B
S31500002B60914203F8014FF9D110BD02440346934246
S31500002B7000D1704703F8011BF9E7FFFF00F034B8F6
S31500002B8038B555EC104B2DED028B00F001F92246BD
S31500002B902B4620462946B0EE408AF0EE608A00F0C9
S31500002BA07FFD30B90022002320462946FFF752FF59
S31500002BB030B9B0EE480AF0EE680ABDEC028B38BDBB
S31500002BC0FFF7C0FF002200232121016010461946AD
S31500002BD000F07EFC41EC180BB0EE480AF0EE680AF5
S31500002BE0BDEC028B38BD00BF51EC110B43422DE901
S31500002BF0F047034321F0004E614E4EEAD373B342D1
S31500002C0055EC104B3CD8634225F0004AA9462343B5
S31500002C104AEAD373B34233D85A4B0B4403433ED0EC
S31500002C208F175AEA040307F0020747EAD5772FD031
S31500002C305EEA000337D0B64544D0B24533D0AAEB9E
S31500002C400E0EBEF1747F4FEA2E5338DA00296ADA87
S31500002C503C3368DA9FED3C0B012F50D0022F3DD05C
S31500002C60A7B151EC100B3AA3D3E90023FFF7DAFC26
S31500002C7039A3D3E90023FFF7D5FC41EC100B05E09F
S31500002C8022462B46FFF7D0FC41EC100BBDE8F0873F
S31500002C90022F0ED0032FF9D19FED310BF6E7BDE8D9
S31500002CA0F04700F039B9B9F1000F05DB9FED2E0BA7
S31500002CB0ECE79FED290BE9E79FED2D0BE6E79FED8E
S31500002CC02A0BC9E7F24507F1FF3721D0022F27D893
S31500002CD02D4B03EBC70797ED000BD7E71CA3D3E9F2
S31500002CE0002351EC100BFFF79DFC02460B461AA180
S31500002CF0D1E90001FFF796FC41EC100BC6E710EE98
S31500002D00901A53EC102B01F1004343EC102BBDE756
S31500002D10022F15D81D4B03EBC70797ED000BB5E740
S31500002D209FED090BB2E702460B462046294600F006
S31500002D30CFFB41EC100B00F097FA00F0EDF88BE7B3
S31500002D409FED0D0BA2E700BF000000000000000091
S31500002D50075C143326A6A13C182D4454FB210940D8
S31500002D60182D4454FB2109C0182D4454FB21F93F6A
S31500002D70182D4454FB21F9BF182D4454FB21E93F7B
S31500002D800000F07F000010C0683A0000503A0000D2
S31500002D905E492DE9F04155EC104BA94300F09480B3
S31500002DA0002D2B4610EE102A5ADD281567D0C3F3E6
S31500002DB01303C107A0F2FF3743F4801303D45B006B
S31500002DC003EBD2735200D10F00267F104FF0160C82
S31500002DD001EB4303B64652004FF400110EEB01001F
S31500002DE0984203DC1B1A00EB010E0E445B00BCF19B
S31500002DF0010C4FEA510103EBD2734FEA4202EDD1C7
S31500002E00654620244FF0004114E00AD1904208D8CC
S31500002E10002800EB010C1DDBF0460023121A0D44BE
S31500002E20C646D00F013C4FEA510100EB43034FEA7F
S31500002E30420233D0734501EB0C00E6DD002800EBBF
S31500002E40010C07DBF046A3EB0E03904288BF03F1AB
S31500002E50FF33E3E7BCF1000FF4DB0EF10108F2E704
S31500002E6025F00041214328D0002D3DD12846D10A26
S31500002E70153852050B460029F9D0CF0241D400245B
S31500002E805B0025460134DE02FAD519461346A240F8
S31500002E90C4F12004E340401B0B4388E713430ED1E3
S31500002EA06C08F3071A4948BF44F0004401EB660179
S31500002EB0224601EB075343EC102BBDE8F0816A1C58
S31500002EC01DD06C1C6408ECE710EE102A2B4610EEA1
S31500002ED0100A294600F0D2F922462B46FFF7A4FB3A
S31500002EE041EC100BBDE8F08120462946FFF79AFB1E
S31500002EF002460B4600F0ECFA41EC100BDDE701361A
S31500002F00CFE7134620244FF0FF35C3E70000F07FDC
S31500002F100000E03FFFFFFFFF2DE9F84F55EC104B97
S31500002F20C74B25F00046AA469E4216DDC54B9E427B
S31500002F3001DC0AD14CB122462B4620462946FFF732
S31500002F4073FB41EC100BBDE8F88FBAF1000F40F3AC
S31500002F50BF809FED9F0BBDE8F88FBB4B9E4200F3F1
S31500002F60BA80A3F1DE739E4240F3A0804FF0FF3B90
S31500002F7022462B462046294600F080F902460B469B
S31500002F808046894600F07AF906460F4692A3D3E9B1
S31500002F90002300F073F992A3D3E90023FFF744FB63
S31500002FA032463B4600F06AF98FA3D3E90023FFF7C8
S31500002FB03BFB32463B4600F061F98DA3D3E9002383
S31500002FC0FFF732FB32463B4600F058F98AA3D3E9B5
S31500002FD00023FFF729FB32463B4600F04FF988A352
S31500002FE0D3E90023FFF720FB42464B4600F046F9A3
S31500002FF0804689463046394683A3D3E9002300F04C
S315000030003DF983A3D3E90023FFF70CFB32463B4689
S3150000301000F034F980A3D3E90023FFF703FB32461F
S315000030203B4600F02BF97EA3D3E90023FFF7FAFA1B
S3150000303032463B4600F022F97BA3D3E90023FFF793
S31500003040F1FA32463B4600F019F9BBF1FF3F024662
S315000030500B464046494663D07C4EFFF7E5FA2246CA
S315000030602B4600F00BF97A4B06EBCB064FEACB0B5F
S315000030709B44DBE90023FFF7D5FA22462B46FFF7F0
S31500003080D1FA02460B46D6E90001FFF7CBFABAF1B0
S31500003090000F41EC100BBFF656AF10EE901A024629
S315000030A001F1004343EC102BBDE8F88F60A3D3E990
S315000030B0002310EE100A2946FFF7B6FA0022654BE8
S315000030C0FFF7E6FC00283FF451AF45EC104B3AE71A
S315000030D09FED590B37E700F0C7F85F4B9E4255EC62
S315000030E0104B2DDCA3F550239E4258DD0022594B90
S315000030F010EE100A2946FFF795FA4FF0010B064627
S315000031000F46204629460022524BFFF78DFA02460B
S315000031100B463046394600F0DBF904460D4627E7F4
S31500003120FFF782FA22462B4600F0A8F802460B4625
S3150000313020462946FFF776FA41EC100BBDE8F88FDA
S31500003140464B9E421FDA10EE100A0022444B2946D7
S31500003150FFF768FA02460B462046294614461D46E6
S3150000316000223F4B4FF0020B00F088F80022394B4B
S31500003170FFF75AFA02460B462046294600F0A8F900
S3150000318004460D46F4E62B460020364910EE102A7A
S3150000319000F09EF94FF0030B04460D46E8E610EEEC
S315000031A0102A2B4610EE100A2946FFF73DFA002298
S315000031B0284B4FF0000BFFF735FA002206460F4664
S315000031C0204629464FF080439FE700BFAFF30080BB
S315000031D0182D4454FB21F93F11DA22E33AAD903F12
S315000031E0EB0D76244B7BA93F513DD0A0660DB13F38
S315000031F06E204CC5CD45B73FFF8300922449C23FA0
S315000032000D5555555555D53F2F6C6A2C44B4A2BF64
S315000032109AFDDE522DDEAD3F6D9A74AFF2B0B33F2C
S31500003220711623FEC671BC3FC4EB98999999C93FA4
S315000032309C7500883CE4377E182D4454FB21F9BF69
S31500003240FFFF0F440000F07FFFFFDB3F803A0000E6
S31500003250A03A00000000F03FFFFFF23F008003406D
S315000032600000F83F0000F0BF51EC100B10EE102AE2
S3150000327021F0004343EC102B704700BF70B54FF0B0
S31500003280FF0C4CF4E06C1CEA11541DBF1CEA1355EC
S3150000329094EA0C0F95EA0C0F00F0DEF82C4481EA54
S315000032A0030621EA4C5123EA4C5350EA013518BF74
S315000032B052EA033541F4801143F4801338D0A0FB61
S315000032C002CE4FF00005E1FB02E506F00042E0FB0E
S315000032D003E54FF00006E1FB03569CF0000F18BF14
S315000032E04EF0010EA4F1FF04B6F5007F64F54074BC
S315000032F004D25FEA4E0E6D4146EB060642EAC6214F
S3150000330041EA55514FEAC52040EA5E504FEACE2EBB
S31500003310B4F1FD0C88BFBCF5E06F1ED8BEF1004FBE
S3150000332008BF5FEA500E50F1000041EB045170BD3A
S3150000333006F0004646EA010140EA020081EA03017E
S31500003340B4EB5C04C2BFD4EB0C0541EA045170BD7A
S3150000335041F480114FF0000E013C00F3AB8014F1F4
S31500003360360FDEBF002001F0004170BDC4F100043D
S31500003370203C35DA0C341BDC04F11404C4F12005BE
S3150000338000FA05F320FA04F001FA05F240EA020019
S3150000339001F0004221F0004110EBD37021FA04F64F
S315000033A042EB06015EEA430E08BF20EAD37070BD09
S315000033B0C4F10C04C4F1200500FA04F320FA05F068
S315000033C001FA04F240EA020001F0004110EBD3706A
S315000033D041F100015EEA430E08BF20EAD37070BDDA
S315000033E0C4F1200500FA05F24EEA020E20FA04F3B3
S315000033F001FA05F243EA020321FA04F001F0004162
S3150000340021FA04F220EA020000EBD3705EEA430ED2
S3150000341008BF20EAD37070BD94F0000F0FD101F001
S315000034200046400041EB010111F4801F08BF013C3A
S31500003430F7D041EA060195F0000F18BF704703F078
S315000034400046520043EB030313F4801F08BF013DFF
S31500003450F7D043EA0603704794EA0C0F0CEA1355BB
S3150000346018BF95EA0C0F0CD050EA410618BF52EA75
S315000034704306D1D181EA030101F000414FF000007B
S3150000348070BD50EA410606BF1046194652EA430689
S3150000349019D094EA0C0F02D150EA013613D195EAFD
S315000034A00C0F05D152EA03361CBF104619460AD145
S315000034B081EA030101F0004141F0FE4141F470014F
S315000034C04FF0000070BD41F0FE4141F4780170BD3F
S315000034D070B54FF0FF0C4CF4E06C1CEA11541DBFA4
S315000034E01CEA135594EA0C0F95EA0C0F00F0A7F8A6
S315000034F0A4EB050481EA030E52EA03354FEA0131D3
S3150000350000F088804FEA03334FF0805545EA1313E5
S3150000351043EA12634FEA022245EA111545EA1065AD
S315000035204FEA00260EF000419D4208BF964244F144
S31500003530FD0404F5407402D25B084FEA3202B61A63
S3150000354065EB03055B084FEA32024FF480104FF437
S31500003550002CB6EB020E75EB030E22BFB61A7546AB
S3150000356040EA0C005B084FEA3202B6EB020E75EB3E
S31500003570030E22BFB61A754640EA5C005B084FEAA6
S315000035803202B6EB020E75EB030E22BFB61A754673
S3150000359040EA9C005B084FEA3202B6EB020E75EB7E
S315000035A0030E22BFB61A754640EADC0055EA060E3F
S315000035B018D04FEA051545EA16754FEA06164FEA82
S315000035C0C30343EA52734FEAC2025FEA1C1CC0D12E
S315000035D011F4801F0BD141EA00014FF000004FF0BB
S315000035E0004CB6E711F4801F04BF01430020B4F17C
S315000035F0FD0C88BFBCF5E06F3FF6AFAEB5EB030C34
S3150000360004BFB6EB020C5FEA500C50F1000041EB30
S31500003610045170BD0EF0004E4EEA113114EB5C04FD
S31500003620C2BFD4EB0C0541EA045170BD41F48011D0
S315000036304FF0000E013C90E645EA060E8DE60CEAD8
S31500003640135594EA0C0F08BF95EA0C0F3FF43BAFF5
S3150000365094EA0C0F0AD150EA01347FF434AF95EAAC
S315000036600C0F7FF425AF104619462CE795EA0C0F90
S3150000367006D152EA03353FF4FDAE1046194622E75D
S3150000368050EA410618BF52EA43067FF4C5AE50EA37
S3150000369041047FF40DAF52EA43057FF4EBAE12E727
S315000036A04FEA410C7FEA6C5C02D150EA013C0AD138
S315000036B04FEA430C7FEA6C5C02D152EA033C02D12A
S315000036C04FF0000070474FF0010070474275696C7B
S315000036D07420776974682052656E65736173204142
S315000036E06476616E63656420466C657869626C65B4
S315000036F020536F667477617265205061636B6167F2
S31500003700652076657273696F6E20332E362E300013
S31500003710332E362E3000000000000603F8B500BF39
S31500003720F8BC08BC9E467047F8B500BFF8BC08BC9C
S315000037309E4670474653505F535543434553532067
S315000037403D3D2065727200002E2E2F7372632F6826
S31500003750616C5F656E7472792E6300FF5541525439
S315000037605F496E697400FFFFD00000206C380000CE
S31500003770A4390000000000000000DFDFFFFF0000AA
S3150000378000000000000000008C370000000102006D
S315000037900000DFDFFFFFFFFF07080000000000005A
S315000037A000000000000000000000001801000703F0
S315000037B003010000011000000000000000000000EE
S315000037C002000400030100002D10000000000000AC
S315000037D0000000000300050003010000591000006E
S315000037E0000000000000000000000000A0860100AC
S315000037F00000000050C30000000E060099100000F3
S315000038000000000008380000000000000000000072
S3150000381000000000000000000000000000000000A2
S3150000382000000000000000000000FFFFDFDF0000D6
S315000038300000000000000000020200000C00000171
S3150000384000020C030000000000000000F50F00005D
S3150000385000000000583800000001000004000020AD
S315000038600F00FFFF00000000FFFF00000E00000039
S315000038707438000000800000000000000080000096
S31500003880010000000080000002000000008000002F
S315000038900D00000010400000000100001040000074
S315000038A001010000000000000401000000400000CB
S315000038B00A010000040000000B01000004000000E3
S315000038C00C010000040000000602000004000000D5
S315000038D007020000000001040103000000000104CB
S315000038E0020300008C018D018E018F01030004008C
S315000038F0C6000200000000000000000000000000FA
S3150000390000000000000000000000000000000000B1
S3150000391000000000000000000000000000000000A1
S315000039200000000000000000000000000000000091
S315000039300000000000000000000000000000000081
S315000039400000000000000000000000000000000071
S315000039500000000000000000000000000000000061
S315000039600000000000000000000000000000000051
S315000039700000000000000000000000000000000041
S315000039800000000000000000000000000000000031
S315000039900000000000000000000000000000000021
S315000039A000000000D519000001170000E919000009
S315000039B0F5190000C51700001D18000019180000B1
S315000039C00D1700006117000081170000AD170000F9
S315000039D0FD17000031170000451700000A09000016
S315000039E00A0900003F0B0000010002000800100059
S315000039F000000000000000000000000000000000C1
S31500003A0000000000000000000000000000000000B0
S31500003A1000000000000000000000000000000000A0
S31500003A200000000000000000000000000000000090
S31500003A300000000000000000000000000000000080
S31500003A400000000000000000000000000000000070
S31500003A50182D4454FB21E9BFD221337F7CD9024083
S31500003A60D221337F7CD902C0000000000000008014
S31500003A70182D4454FB210940182D4454FB2109C03C
S31500003A804FBB610567ACDD3F182D4454FB21E93F70
S31500003A909BF681D20B73EF3F182D4454FB21F93F5F
S31500003AA0E2652F227F2B7A3C075C143326A6813CE5
S31500003AB0BDCBF07A8807703C075C143326A6913C90
S30900003AC000000000FC
S31500003AC4430200004001A1000C0000200000000099
S31500003AD4103A0000303A0000F039000000000000FF
S31500003AE400000000000000000000000000000000CC
S31500003AF400000000000000000000000000000000BC
S31500003B0400000000000000000000000000000000AB
S31500003B14000000000000000000000000000000009B
S31500003B240000000000000000000000002502000064
S30900003B340102000084
S3150100A100FFFFFFFFFFFFFFFFFFFFFFFFFFFFFFFF58
S3150100A110FFFFFFFFFFFFFFFFFFFFFFFFFFFFFFFF48
S3150100A120FFFFFFFFFFFFFFFFFFFFFFFFFFFFFFFF38
S30D0100A130FFFFFFFFFFFFFFFF28
S3150100A200FFFDFFFFFFFFFFFFFFFFFFFFFFFFFFFF59
S3150100A210FFFFFFFFFFFFFFFFFFFFFFFFFFFFFFFF47
S3150100A220FFFFFFFFFFFFFFFFFFFFFFFFFFFFFFFF37
S3150100A230FFFFFFFFFFFFFFFFFFFFFFFFFFFFFFFF27
S3150100A240FFFFFFFFFFFFFFFFFFFFFFFFFFFFFFFF17
S3150100A250FFFFFFFFFFFFFFFFFFFFFFFFFFFFFFFF07
S3150100A260FFFFFFFFFFFFFFFFFFFFFFFFFFFFFFFFF7
S3150100A270FFFFFFFFFFFFFFFFFFFFFFFFFFFFFFFFE7
S3150100A280F8F8FFFFFFFFFFFFFFFFFFFFFFFFFFFFE5
S3150100A290FFFFFFFFFFFFFFFFFFFFFFFFFFFFFFFFC7
S3150100A2A0FFFFFFFFFFFFFFFFFFFFFFFFFFFFFFFFB7
S3150100A2B0FFFFFFFFFFFFFFFFFFFFFFFFFFFFFFFFA7
S3110100A2C0FFFFFFFFFFFFFFFFFFFFFFFF97
S7050000255184
